{
  "transactions": [
    {
      "hash": "0xf11973568a4f31f3334e642bfcf658148cf317c91fda1e3d746dfd2a5ae0457a",
      "transactionType": "CREATE2",
      "contractName": "Deployer",
      "contractAddress": "0x3e564eaffeb8b01d6a129df3c97df50974ff7e1e",
      "function": null,
      "arguments": [
        "0x207E804758e28F2b3fD6E4219671B327100b82f8",
        "0x0000000000000000000000000000000000000000"
      ],
      "transaction": {
        "from": "0x207e804758e28f2b3fd6e4219671b327100b82f8",
        "to": "0x4e59b44847b379578588920ca78fbf26c0b4956c",
        "gas": "0xe81f1",
        "value": "0x0",
        "input": "0x3000000000000000000000000000000000000000000000000000000000000000608060405234801561000f575f80fd5b50604051610b4e380380610b4e83398101604081905261002e916100dd565b5f80546001600160a01b03199081166001600160a01b0385811691821784556001805490931690851617909155604051849284929133917f8be0079c531659141344cd1fd0a4f28419497f9722a3daafe3b4186f6b6457e091a36040516001600160a01b0382169033907fa3396fd7f6e0a21b50e5089d2da70d5ac0a3bbbd1f617a93f134b76389980198905f90a350505050610115565b6001600160a01b03811681146100da575f80fd5b50565b5f80604083850312156100ee575f80fd5b82516100f9816100c6565b602084015190925061010a816100c6565b809150509250929050565b610a2c806101225f395ff3fe608060405234801561000f575f80fd5b5060043610610085575f3560e01c8063bf7e214f11610058578063bf7e214f14610112578063ef5de7e314610125578063f2fde38b14610138578063f74907a21461014b575f80fd5b806350c358a4146100895780637a9e5e4b146100c05780638da5cb5b146100d5578063bf40fac1146100ff575b5f80fd5b6100ab61009736600461072b565b60026020525f908152604090205460ff1681565b60405190151581526020015b60405180910390f35b6100d36100ce36600461072b565b61016c565b005b5f546100e7906001600160a01b031681565b6040516001600160a01b0390911681526020016100b7565b6100e761010d366004610792565b610250565b6001546100e7906001600160a01b031681565b6100e76101333660046107e5565b61026f565b6100d361014636600461072b565b61035e565b61015e610159366004610792565b6103f8565b6040519081526020016100b7565b5f546001600160a01b03163314806101fd575060015460405163b700961360e01b81526001600160a01b039091169063b7009613906101be90339030906001600160e01b03195f3516906004016108ea565b602060405180830381865afa1580156101d9573d5f803e3d5ffd5b505050506040513d601f19601f820116820180604052508101906101fd9190610917565b610205575f80fd5b600180546001600160a01b0319166001600160a01b03831690811790915560405133907fa3396fd7f6e0a21b50e5089d2da70d5ac0a3bbbd1f617a93f134b76389980198905f90a350565b5f8061025c84846103f8565b90506102678161042a565b949350505050565b5f610285335f356001600160e01b03191661043b565b6102c55760405162461bcd60e51b815260206004820152600c60248201526b15539055551213d49256915160a21b60448201526064015b60405180910390fd5b8451602086012083156102f9578585856040516020016102e793929190610963565b60405160208183030381529060405295505b5f61030489896103f8565b90505f6103128289876104e1565b90507fd928a3951eedba2f72a5eb8c15b591ead63c282f21b2f5e93506fb88cae27fec8a8a838660405161034994939291906109a9565b60405180910390a19998505050505050505050565b610373335f356001600160e01b03191661043b565b6103ae5760405162461bcd60e51b815260206004820152600c60248201526b15539055551213d49256915160a21b60448201526064016102bc565b5f80546001600160a01b0319166001600160a01b0383169081178255604051909133917f8be0079c531659141344cd1fd0a4f28419497f9722a3daafe3b4186f6b6457e09190a350565b5f828260405160200161040c9291906109d8565b60405160208183030381529060405280519060200120905092915050565b5f6104358230610630565b92915050565b6001545f906001600160a01b031680158015906104c2575060405163b700961360e01b81526001600160a01b0382169063b700961390610483908790309088906004016108ea565b602060405180830381865afa15801561049e573d5f803e3d5ffd5b505050506040513d601f19601f820116820180604052508101906104c29190610917565b8061026757505f546001600160a01b0385811691161491505092915050565b5f806040518060400160405280601081526020016f67363d3d37363d34f03d5260086018f360801b81525090505f858251602084015ff590506001600160a01b0381166105645760405162461bcd60e51b81526020600482015260116024820152701111541313d65351539517d19052531151607a1b60448201526064016102bc565b61056d8661042a565b92505f816001600160a01b0316858760405161058991906109eb565b5f6040518083038185875af1925050503d805f81146105c3576040519150601f19603f3d011682016040523d82523d5f602084013e6105c8565b606091505b505090508080156105e257506001600160a01b0384163b15155b6106265760405162461bcd60e51b815260206004820152601560248201527412539255125053125690551253d397d19052531151605a1b60448201526064016102bc565b5050509392505050565b604080518082018252601081526f67363d3d37363d34f03d5260086018f360801b60209182015290516001600160f81b0319918101919091526bffffffffffffffffffffffff19606083901b166021820152603581018390527f21c35dbe1b344a2488cf3321d6ce542f8e9f305544ff09e4993a62319a497c1f60558201525f9081906106d4906075015b6040516020818303038152906040528051906020012090565b6040516135a560f21b60208201526bffffffffffffffffffffffff19606083901b166022820152600160f81b6036820152909150610267906037016106bb565b6001600160a01b0381168114610728575f80fd5b50565b5f6020828403121561073b575f80fd5b813561074681610714565b9392505050565b5f8083601f84011261075d575f80fd5b50813567ffffffffffffffff811115610774575f80fd5b60208301915083602082850101111561078b575f80fd5b9250929050565b5f80602083850312156107a3575f80fd5b823567ffffffffffffffff8111156107b9575f80fd5b6107c58582860161074d565b90969095509350505050565b634e487b7160e01b5f52604160045260245ffd5b5f805f805f80608087890312156107fa575f80fd5b863567ffffffffffffffff80821115610811575f80fd5b61081d8a838b0161074d565b90985096506020890135915080821115610835575f80fd5b818901915089601f830112610848575f80fd5b81358181111561085a5761085a6107d1565b604051601f8201601f19908116603f01168101908382118183101715610882576108826107d1565b816040528281528c602084870101111561089a575f80fd5b826020860160208301375f6020848301015280985050505060408901359150808211156108c5575f80fd5b506108d289828a0161074d565b979a9699509497949695606090950135949350505050565b6001600160a01b0393841681529190921660208201526001600160e01b0319909116604082015260600190565b5f60208284031215610927575f80fd5b81518015158114610746575f80fd5b5f81515f5b81811015610955576020818501810151868301520161093b565b505f93019283525090919050565b5f61096e8286610936565b838582375f930192835250909392505050565b81835281816020850137505f828201602090810191909152601f909101601f19169091010190565b606081525f6109bc606083018688610981565b6001600160a01b03949094166020830152506040015292915050565b602081525f610267602083018486610981565b5f610746828461093656fea264697066735822122093dc5a3cf1c15c785d0906eca488ed29219c77f8d8fcfea74cb546c21c19ed5264736f6c63430008140033000000000000000000000000207e804758e28f2b3fd6e4219671b327100b82f80000000000000000000000000000000000000000000000000000000000000000",
        "nonce": "0x140",
        "chainId": "0x1"
      },
      "additionalContracts": [],
      "isFixedGasLimit": false
    },
    {
      "hash": "0xf01dc86aecf87b7d3cff62c604175852e399cbcf9f3c29caca2cf16db207307a",
      "transactionType": "CALL",
      "contractName": "Deployer",
      "contractAddress": "0x3e564eaffeb8b01d6a129df3c97df50974ff7e1e",
      "function": "deployContract(string,bytes,bytes,uint256)",
      "arguments": [
        "\"Seven Seas RolesAuthority Version 0.0\"",
        "0x608060405234801561000f575f80fd5b50604051610b58380380610b5883398101604081905261002e916100dd565b5f80546001600160a01b03199081166001600160a01b0385811691821784556001805490931690851617909155604051849284929133917f8be0079c531659141344cd1fd0a4f28419497f9722a3daafe3b4186f6b6457e091a36040516001600160a01b0382169033907fa3396fd7f6e0a21b50e5089d2da70d5ac0a3bbbd1f617a93f134b76389980198905f90a350505050610115565b6001600160a01b03811681146100da575f80fd5b50565b5f80604083850312156100ee575f80fd5b82516100f9816100c6565b602084015190925061010a816100c6565b809150509250929050565b610a36806101225f395ff3fe608060405234801561000f575f80fd5b50600436106100cb575f3560e01c80638da5cb5b11610088578063bf7e214f11610063578063bf7e214f1461022c578063c6b0263e1461023f578063ea7ca27614610252578063f2fde38b14610288575f80fd5b80638da5cb5b146101a3578063b4bad06a146101cd578063b700961314610219575f80fd5b806306a36aee146100cf5780632f47571f1461010157806367aff4841461013e5780637917b794146101535780637a9e5e4b1461017d5780637d40583d14610190575b5f80fd5b6100ee6100dd3660046107b5565b60026020525f908152604090205481565b6040519081526020015b60405180910390f35b61012e61010f3660046107f3565b600360209081525f928352604080842090915290825290205460ff1681565b60405190151581526020016100f8565b61015161014c366004610843565b61029b565b005b6100ee6101613660046107f3565b600460209081525f928352604080842090915290825290205481565b61015161018b3660046107b5565b610376565b61015161019e366004610889565b61045a565b5f546101b5906001600160a01b031681565b6040516001600160a01b0390911681526020016100f8565b61012e6101db3660046108de565b6001600160a01b03919091165f9081526004602090815260408083206001600160e01b031990941683529290522054600160ff929092161c16151590565b61012e610227366004610920565b610562565b6001546101b5906001600160a01b031681565b61015161024d36600461093d565b6105df565b61012e610260366004610968565b6001600160a01b03919091165f90815260026020526040902054600160ff9092161c16151590565b6101516102963660046107b5565b61067e565b6102b0335f356001600160e01b0319166106f9565b6102d55760405162461bcd60e51b81526004016102cc90610992565b60405180910390fd5b8015610303576001600160a01b0383165f9081526002602052604090208054600160ff85161b179055610328565b6001600160a01b0383165f9081526002602052604090208054600160ff85161b191690555b8160ff16836001600160a01b03167f4c9bdd0c8e073eb5eda2250b18d8e5121ff27b62064fbeeeed4869bb99bc5bf283604051610369911515815260200190565b60405180910390a3505050565b5f546001600160a01b0316331480610407575060015460405163b700961360e01b81526001600160a01b039091169063b7009613906103c890339030906001600160e01b03195f3516906004016109b8565b602060405180830381865afa1580156103e3573d5f803e3d5ffd5b505050506040513d601f19601f8201168201806040525081019061040791906109e5565b61040f575f80fd5b600180546001600160a01b0319166001600160a01b03831690811790915560405133907fa3396fd7f6e0a21b50e5089d2da70d5ac0a3bbbd1f617a93f134b76389980198905f90a350565b61046f335f356001600160e01b0319166106f9565b61048b5760405162461bcd60e51b81526004016102cc90610992565b80156104ce576001600160a01b0383165f9081526004602090815260408083206001600160e01b03198616845290915290208054600160ff87161b179055610508565b6001600160a01b0383165f9081526004602090815260408083206001600160e01b03198616845290915290208054600160ff87161b191690555b816001600160e01b031916836001600160a01b03168560ff167fa52ea92e6e955aa8ac66420b86350f7139959adfcc7e6a14eee1bd116d09860e84604051610554911515815260200190565b60405180910390a450505050565b6001600160a01b0382165f9081526003602090815260408083206001600160e01b03198516845290915281205460ff16806105d757506001600160a01b038084165f9081526004602090815260408083206001600160e01b031987168452825280832054938816835260029091529020541615155b949350505050565b6105f4335f356001600160e01b0319166106f9565b6106105760405162461bcd60e51b81526004016102cc90610992565b6001600160a01b0383165f8181526003602090815260408083206001600160e01b0319871680855290835292819020805460ff191686151590811790915590519081529192917f950a343f5d10445e82a71036d3f4fb3016180a25805141932543b83e2078a93e9101610369565b610693335f356001600160e01b0319166106f9565b6106af5760405162461bcd60e51b81526004016102cc90610992565b5f80546001600160a01b0319166001600160a01b0383169081178255604051909133917f8be0079c531659141344cd1fd0a4f28419497f9722a3daafe3b4186f6b6457e09190a350565b6001545f906001600160a01b03168015801590610780575060405163b700961360e01b81526001600160a01b0382169063b700961390610741908790309088906004016109b8565b602060405180830381865afa15801561075c573d5f803e3d5ffd5b505050506040513d601f19601f8201168201806040525081019061078091906109e5565b806105d757505f546001600160a01b03858116911614949350505050565b6001600160a01b03811681146107b2575f80fd5b50565b5f602082840312156107c5575f80fd5b81356107d08161079e565b9392505050565b80356001600160e01b0319811681146107ee575f80fd5b919050565b5f8060408385031215610804575f80fd5b823561080f8161079e565b915061081d602084016107d7565b90509250929050565b803560ff811681146107ee575f80fd5b80151581146107b2575f80fd5b5f805f60608486031215610855575f80fd5b83356108608161079e565b925061086e60208501610826565b9150604084013561087e81610836565b809150509250925092565b5f805f806080858703121561089c575f80fd5b6108a585610826565b935060208501356108b58161079e565b92506108c3604086016107d7565b915060608501356108d381610836565b939692955090935050565b5f805f606084860312156108f0575f80fd5b6108f984610826565b925060208401356109098161079e565b9150610917604085016107d7565b90509250925092565b5f805f60608486031215610932575f80fd5b83356108f98161079e565b5f805f6060848603121561094f575f80fd5b833561095a8161079e565b925061086e602085016107d7565b5f8060408385031215610979575f80fd5b82356109848161079e565b915061081d60208401610826565b6020808252600c908201526b15539055551213d49256915160a21b604082015260600190565b6001600160a01b0393841681529190921660208201526001600160e01b0319909116604082015260600190565b5f602082840312156109f5575f80fd5b81516107d08161083656fea2646970667358221220e82fd489259c5d886c322192c788a2907ffbc00eecc96ea5399529d4271cc2b264736f6c63430008140033",
        "0x000000000000000000000000207e804758e28f2b3fd6e4219671b327100b82f80000000000000000000000000000000000000000000000000000000000000000",
        "0"
      ],
      "transaction": {
        "from": "0x207e804758e28f2b3fd6e4219671b327100b82f8",
        "to": "0x3e564eaffeb8b01d6a129df3c97df50974ff7e1e",
        "gas": "0xf03e8",
        "value": "0x0",
        "input": "0xef5de7e3000000000000000000000000000000000000000000000000000000000000008000000000000000000000000000000000000000000000000000000000000000e00000000000000000000000000000000000000000000000000000000000000c6000000000000000000000000000000000000000000000000000000000000000000000000000000000000000000000000000000000000000000000000000000025536576656e205365617320526f6c6573417574686f726974792056657273696f6e20302e300000000000000000000000000000000000000000000000000000000000000000000000000000000000000000000000000000000000000000000b58608060405234801561000f575f80fd5b50604051610b58380380610b5883398101604081905261002e916100dd565b5f80546001600160a01b03199081166001600160a01b0385811691821784556001805490931690851617909155604051849284929133917f8be0079c531659141344cd1fd0a4f28419497f9722a3daafe3b4186f6b6457e091a36040516001600160a01b0382169033907fa3396fd7f6e0a21b50e5089d2da70d5ac0a3bbbd1f617a93f134b76389980198905f90a350505050610115565b6001600160a01b03811681146100da575f80fd5b50565b5f80604083850312156100ee575f80fd5b82516100f9816100c6565b602084015190925061010a816100c6565b809150509250929050565b610a36806101225f395ff3fe608060405234801561000f575f80fd5b50600436106100cb575f3560e01c80638da5cb5b11610088578063bf7e214f11610063578063bf7e214f1461022c578063c6b0263e1461023f578063ea7ca27614610252578063f2fde38b14610288575f80fd5b80638da5cb5b146101a3578063b4bad06a146101cd578063b700961314610219575f80fd5b806306a36aee146100cf5780632f47571f1461010157806367aff4841461013e5780637917b794146101535780637a9e5e4b1461017d5780637d40583d14610190575b5f80fd5b6100ee6100dd3660046107b5565b60026020525f908152604090205481565b6040519081526020015b60405180910390f35b61012e61010f3660046107f3565b600360209081525f928352604080842090915290825290205460ff1681565b60405190151581526020016100f8565b61015161014c366004610843565b61029b565b005b6100ee6101613660046107f3565b600460209081525f928352604080842090915290825290205481565b61015161018b3660046107b5565b610376565b61015161019e366004610889565b61045a565b5f546101b5906001600160a01b031681565b6040516001600160a01b0390911681526020016100f8565b61012e6101db3660046108de565b6001600160a01b03919091165f9081526004602090815260408083206001600160e01b031990941683529290522054600160ff929092161c16151590565b61012e610227366004610920565b610562565b6001546101b5906001600160a01b031681565b61015161024d36600461093d565b6105df565b61012e610260366004610968565b6001600160a01b03919091165f90815260026020526040902054600160ff9092161c16151590565b6101516102963660046107b5565b61067e565b6102b0335f356001600160e01b0319166106f9565b6102d55760405162461bcd60e51b81526004016102cc90610992565b60405180910390fd5b8015610303576001600160a01b0383165f9081526002602052604090208054600160ff85161b179055610328565b6001600160a01b0383165f9081526002602052604090208054600160ff85161b191690555b8160ff16836001600160a01b03167f4c9bdd0c8e073eb5eda2250b18d8e5121ff27b62064fbeeeed4869bb99bc5bf283604051610369911515815260200190565b60405180910390a3505050565b5f546001600160a01b0316331480610407575060015460405163b700961360e01b81526001600160a01b039091169063b7009613906103c890339030906001600160e01b03195f3516906004016109b8565b602060405180830381865afa1580156103e3573d5f803e3d5ffd5b505050506040513d601f19601f8201168201806040525081019061040791906109e5565b61040f575f80fd5b600180546001600160a01b0319166001600160a01b03831690811790915560405133907fa3396fd7f6e0a21b50e5089d2da70d5ac0a3bbbd1f617a93f134b76389980198905f90a350565b61046f335f356001600160e01b0319166106f9565b61048b5760405162461bcd60e51b81526004016102cc90610992565b80156104ce576001600160a01b0383165f9081526004602090815260408083206001600160e01b03198616845290915290208054600160ff87161b179055610508565b6001600160a01b0383165f9081526004602090815260408083206001600160e01b03198616845290915290208054600160ff87161b191690555b816001600160e01b031916836001600160a01b03168560ff167fa52ea92e6e955aa8ac66420b86350f7139959adfcc7e6a14eee1bd116d09860e84604051610554911515815260200190565b60405180910390a450505050565b6001600160a01b0382165f9081526003602090815260408083206001600160e01b03198516845290915281205460ff16806105d757506001600160a01b038084165f9081526004602090815260408083206001600160e01b031987168452825280832054938816835260029091529020541615155b949350505050565b6105f4335f356001600160e01b0319166106f9565b6106105760405162461bcd60e51b81526004016102cc90610992565b6001600160a01b0383165f8181526003602090815260408083206001600160e01b0319871680855290835292819020805460ff191686151590811790915590519081529192917f950a343f5d10445e82a71036d3f4fb3016180a25805141932543b83e2078a93e9101610369565b610693335f356001600160e01b0319166106f9565b6106af5760405162461bcd60e51b81526004016102cc90610992565b5f80546001600160a01b0319166001600160a01b0383169081178255604051909133917f8be0079c531659141344cd1fd0a4f28419497f9722a3daafe3b4186f6b6457e09190a350565b6001545f906001600160a01b03168015801590610780575060405163b700961360e01b81526001600160a01b0382169063b700961390610741908790309088906004016109b8565b602060405180830381865afa15801561075c573d5f803e3d5ffd5b505050506040513d601f19601f8201168201806040525081019061078091906109e5565b806105d757505f546001600160a01b03858116911614949350505050565b6001600160a01b03811681146107b2575f80fd5b50565b5f602082840312156107c5575f80fd5b81356107d08161079e565b9392505050565b80356001600160e01b0319811681146107ee575f80fd5b919050565b5f8060408385031215610804575f80fd5b823561080f8161079e565b915061081d602084016107d7565b90509250929050565b803560ff811681146107ee575f80fd5b80151581146107b2575f80fd5b5f805f60608486031215610855575f80fd5b83356108608161079e565b925061086e60208501610826565b9150604084013561087e81610836565b809150509250925092565b5f805f806080858703121561089c575f80fd5b6108a585610826565b935060208501356108b58161079e565b92506108c3604086016107d7565b915060608501356108d381610836565b939692955090935050565b5f805f606084860312156108f0575f80fd5b6108f984610826565b925060208401356109098161079e565b9150610917604085016107d7565b90509250925092565b5f805f60608486031215610932575f80fd5b83356108f98161079e565b5f805f6060848603121561094f575f80fd5b833561095a8161079e565b925061086e602085016107d7565b5f8060408385031215610979575f80fd5b82356109848161079e565b915061081d60208401610826565b6020808252600c908201526b15539055551213d49256915160a21b604082015260600190565b6001600160a01b0393841681529190921660208201526001600160e01b0319909116604082015260600190565b5f602082840312156109f5575f80fd5b81516107d08161083656fea2646970667358221220e82fd489259c5d886c322192c788a2907ffbc00eecc96ea5399529d4271cc2b264736f6c6343000814003300000000000000000000000000000000000000000000000000000000000000000000000000000040000000000000000000000000207e804758e28f2b3fd6e4219671b327100b82f80000000000000000000000000000000000000000000000000000000000000000",
        "nonce": "0x141",
        "chainId": "0x1"
      },
      "additionalContracts": [
        {
          "transactionType": "CREATE2",
          "address": "0x910cbfb9a1e64a35c8b04d0d85fbc4b0993a3c17",
          "initCode": "0x67363d3d37363d34f03d5260086018f3"
        },
        {
          "transactionType": "CREATE",
          "address": "0x819ce86a2256968698c61cd087d09cc108b7ab05",
          "initCode": "0x608060405234801561000f575f80fd5b50604051610b58380380610b5883398101604081905261002e916100dd565b5f80546001600160a01b03199081166001600160a01b0385811691821784556001805490931690851617909155604051849284929133917f8be0079c531659141344cd1fd0a4f28419497f9722a3daafe3b4186f6b6457e091a36040516001600160a01b0382169033907fa3396fd7f6e0a21b50e5089d2da70d5ac0a3bbbd1f617a93f134b76389980198905f90a350505050610115565b6001600160a01b03811681146100da575f80fd5b50565b5f80604083850312156100ee575f80fd5b82516100f9816100c6565b602084015190925061010a816100c6565b809150509250929050565b610a36806101225f395ff3fe608060405234801561000f575f80fd5b50600436106100cb575f3560e01c80638da5cb5b11610088578063bf7e214f11610063578063bf7e214f1461022c578063c6b0263e1461023f578063ea7ca27614610252578063f2fde38b14610288575f80fd5b80638da5cb5b146101a3578063b4bad06a146101cd578063b700961314610219575f80fd5b806306a36aee146100cf5780632f47571f1461010157806367aff4841461013e5780637917b794146101535780637a9e5e4b1461017d5780637d40583d14610190575b5f80fd5b6100ee6100dd3660046107b5565b60026020525f908152604090205481565b6040519081526020015b60405180910390f35b61012e61010f3660046107f3565b600360209081525f928352604080842090915290825290205460ff1681565b60405190151581526020016100f8565b61015161014c366004610843565b61029b565b005b6100ee6101613660046107f3565b600460209081525f928352604080842090915290825290205481565b61015161018b3660046107b5565b610376565b61015161019e366004610889565b61045a565b5f546101b5906001600160a01b031681565b6040516001600160a01b0390911681526020016100f8565b61012e6101db3660046108de565b6001600160a01b03919091165f9081526004602090815260408083206001600160e01b031990941683529290522054600160ff929092161c16151590565b61012e610227366004610920565b610562565b6001546101b5906001600160a01b031681565b61015161024d36600461093d565b6105df565b61012e610260366004610968565b6001600160a01b03919091165f90815260026020526040902054600160ff9092161c16151590565b6101516102963660046107b5565b61067e565b6102b0335f356001600160e01b0319166106f9565b6102d55760405162461bcd60e51b81526004016102cc90610992565b60405180910390fd5b8015610303576001600160a01b0383165f9081526002602052604090208054600160ff85161b179055610328565b6001600160a01b0383165f9081526002602052604090208054600160ff85161b191690555b8160ff16836001600160a01b03167f4c9bdd0c8e073eb5eda2250b18d8e5121ff27b62064fbeeeed4869bb99bc5bf283604051610369911515815260200190565b60405180910390a3505050565b5f546001600160a01b0316331480610407575060015460405163b700961360e01b81526001600160a01b039091169063b7009613906103c890339030906001600160e01b03195f3516906004016109b8565b602060405180830381865afa1580156103e3573d5f803e3d5ffd5b505050506040513d601f19601f8201168201806040525081019061040791906109e5565b61040f575f80fd5b600180546001600160a01b0319166001600160a01b03831690811790915560405133907fa3396fd7f6e0a21b50e5089d2da70d5ac0a3bbbd1f617a93f134b76389980198905f90a350565b61046f335f356001600160e01b0319166106f9565b61048b5760405162461bcd60e51b81526004016102cc90610992565b80156104ce576001600160a01b0383165f9081526004602090815260408083206001600160e01b03198616845290915290208054600160ff87161b179055610508565b6001600160a01b0383165f9081526004602090815260408083206001600160e01b03198616845290915290208054600160ff87161b191690555b816001600160e01b031916836001600160a01b03168560ff167fa52ea92e6e955aa8ac66420b86350f7139959adfcc7e6a14eee1bd116d09860e84604051610554911515815260200190565b60405180910390a450505050565b6001600160a01b0382165f9081526003602090815260408083206001600160e01b03198516845290915281205460ff16806105d757506001600160a01b038084165f9081526004602090815260408083206001600160e01b031987168452825280832054938816835260029091529020541615155b949350505050565b6105f4335f356001600160e01b0319166106f9565b6106105760405162461bcd60e51b81526004016102cc90610992565b6001600160a01b0383165f8181526003602090815260408083206001600160e01b0319871680855290835292819020805460ff191686151590811790915590519081529192917f950a343f5d10445e82a71036d3f4fb3016180a25805141932543b83e2078a93e9101610369565b610693335f356001600160e01b0319166106f9565b6106af5760405162461bcd60e51b81526004016102cc90610992565b5f80546001600160a01b0319166001600160a01b0383169081178255604051909133917f8be0079c531659141344cd1fd0a4f28419497f9722a3daafe3b4186f6b6457e09190a350565b6001545f906001600160a01b03168015801590610780575060405163b700961360e01b81526001600160a01b0382169063b700961390610741908790309088906004016109b8565b602060405180830381865afa15801561075c573d5f803e3d5ffd5b505050506040513d601f19601f8201168201806040525081019061078091906109e5565b806105d757505f546001600160a01b03858116911614949350505050565b6001600160a01b03811681146107b2575f80fd5b50565b5f602082840312156107c5575f80fd5b81356107d08161079e565b9392505050565b80356001600160e01b0319811681146107ee575f80fd5b919050565b5f8060408385031215610804575f80fd5b823561080f8161079e565b915061081d602084016107d7565b90509250929050565b803560ff811681146107ee575f80fd5b80151581146107b2575f80fd5b5f805f60608486031215610855575f80fd5b83356108608161079e565b925061086e60208501610826565b9150604084013561087e81610836565b809150509250925092565b5f805f806080858703121561089c575f80fd5b6108a585610826565b935060208501356108b58161079e565b92506108c3604086016107d7565b915060608501356108d381610836565b939692955090935050565b5f805f606084860312156108f0575f80fd5b6108f984610826565b925060208401356109098161079e565b9150610917604085016107d7565b90509250925092565b5f805f60608486031215610932575f80fd5b83356108f98161079e565b5f805f6060848603121561094f575f80fd5b833561095a8161079e565b925061086e602085016107d7565b5f8060408385031215610979575f80fd5b82356109848161079e565b915061081d60208401610826565b6020808252600c908201526b15539055551213d49256915160a21b604082015260600190565b6001600160a01b0393841681529190921660208201526001600160e01b0319909116604082015260600190565b5f602082840312156109f5575f80fd5b81516107d08161083656fea2646970667358221220e82fd489259c5d886c322192c788a2907ffbc00eecc96ea5399529d4271cc2b264736f6c63430008140033000000000000000000000000207e804758e28f2b3fd6e4219671b327100b82f80000000000000000000000000000000000000000000000000000000000000000"
        }
      ],
      "isFixedGasLimit": false
    },
    {
      "hash": "0xa082801475cdb874fd82cfa785997c2b001e783d376f3f9f8fb32fb69a087d31",
      "transactionType": "CALL",
      "contractName": "Deployer",
      "contractAddress": "0x3e564eaffeb8b01d6a129df3c97df50974ff7e1e",
      "function": "setAuthority(address)",
      "arguments": [
        "0x819Ce86a2256968698C61CD087D09Cc108B7AB05"
      ],
      "transaction": {
        "from": "0x207e804758e28f2b3fd6e4219671b327100b82f8",
        "to": "0x3e564eaffeb8b01d6a129df3c97df50974ff7e1e",
        "gas": "0x100c7",
        "value": "0x0",
        "input": "0x7a9e5e4b000000000000000000000000819ce86a2256968698c61cd087d09cc108b7ab05",
        "nonce": "0x142",
        "chainId": "0x1"
      },
      "additionalContracts": [],
      "isFixedGasLimit": false
    },
    {
      "hash": "0x3b93f808a6e7b7363c50cbc0de6b1548af11671c7b15a11b390fd218e09ea064",
      "transactionType": "CALL",
      "contractName": "RolesAuthority",
      "contractAddress": "0x819ce86a2256968698c61cd087d09cc108b7ab05",
      "function": "setRoleCapability(uint8,address,bytes4,bool)",
      "arguments": [
        "1",
        "0x3e564eaFFEB8b01D6a129dF3C97df50974ff7E1e",
        "0xef5de7e300000000000000000000000000000000000000000000000000000000",
        "true"
      ],
      "transaction": {
        "from": "0x207e804758e28f2b3fd6e4219671b327100b82f8",
        "to": "0x819ce86a2256968698c61cd087d09cc108b7ab05",
        "gas": "0x12686",
        "value": "0x0",
        "input": "0x7d40583d00000000000000000000000000000000000000000000000000000000000000010000000000000000000000003e564eaffeb8b01d6a129df3c97df50974ff7e1eef5de7e3000000000000000000000000000000000000000000000000000000000000000000000000000000000000000000000000000000000000000000000001",
        "nonce": "0x143",
        "chainId": "0x1"
      },
      "additionalContracts": [],
      "isFixedGasLimit": false
    },
    {
      "hash": "0x09113b1930e4e906cdd3af970b330446ad25fb7c086c1a37ea6050e5cc5fe52f",
      "transactionType": "CALL",
      "contractName": "RolesAuthority",
      "contractAddress": "0x819ce86a2256968698c61cd087d09cc108b7ab05",
      "function": "setUserRole(address,uint8,bool)",
      "arguments": [
        "0x207E804758e28F2b3fD6E4219671B327100b82f8",
        "1",
        "true"
      ],
      "transaction": {
        "from": "0x207e804758e28f2b3fd6e4219671b327100b82f8",
        "to": "0x819ce86a2256968698c61cd087d09cc108b7ab05",
        "gas": "0x111a6",
        "value": "0x0",
        "input": "0x67aff484000000000000000000000000207e804758e28f2b3fd6e4219671b327100b82f800000000000000000000000000000000000000000000000000000000000000010000000000000000000000000000000000000000000000000000000000000001",
        "nonce": "0x144",
        "chainId": "0x1"
      },
      "additionalContracts": [],
      "isFixedGasLimit": false
    }
  ],
  "receipts": [
    {
      "status": "0x1",
      "cumulativeGasUsed": "0x93d756",
      "logs": [
        {
          "address": "0x3e564eaffeb8b01d6a129df3c97df50974ff7e1e",
          "topics": [
            "0x8be0079c531659141344cd1fd0a4f28419497f9722a3daafe3b4186f6b6457e0",
            "0x0000000000000000000000004e59b44847b379578588920ca78fbf26c0b4956c",
            "0x000000000000000000000000207e804758e28f2b3fd6e4219671b327100b82f8"
          ],
          "data": "0x",
          "blockHash": "0xe6bcedecacacc0ac0e9a112f08ec53d283a15d26c47b0d0ff00db6095715806c",
          "blockNumber": "0x137e1bb",
          "transactionHash": "0xf11973568a4f31f3334e642bfcf658148cf317c91fda1e3d746dfd2a5ae0457a",
          "transactionIndex": "0x5b",
          "logIndex": "0x155",
          "removed": false
        },
        {
          "address": "0x3e564eaffeb8b01d6a129df3c97df50974ff7e1e",
          "topics": [
            "0xa3396fd7f6e0a21b50e5089d2da70d5ac0a3bbbd1f617a93f134b76389980198",
            "0x0000000000000000000000004e59b44847b379578588920ca78fbf26c0b4956c",
            "0x0000000000000000000000000000000000000000000000000000000000000000"
          ],
          "data": "0x",
          "blockHash": "0xe6bcedecacacc0ac0e9a112f08ec53d283a15d26c47b0d0ff00db6095715806c",
          "blockNumber": "0x137e1bb",
          "transactionHash": "0xf11973568a4f31f3334e642bfcf658148cf317c91fda1e3d746dfd2a5ae0457a",
          "transactionIndex": "0x5b",
          "logIndex": "0x156",
          "removed": false
        }
      ],
      "logsBloom": "0x00000000000000000000000000000000000000000000000000800000000200000000000000000000000010000000000000100000000000000000000000000000000000000000000000000000000000000003000000000000000000000000000000000000020000000000000000000800002000000000000000000000000020400000000000000000000000000000000000000000001000000000000000000001000000000001000000000000000000000000000000000000000000000000000000000000000000000000000000000000000000400000000000000000000020000000000000004000000000000000000080000000000000000000000000000000",
      "type": "0x2",
      "transactionHash": "0xf11973568a4f31f3334e642bfcf658148cf317c91fda1e3d746dfd2a5ae0457a",
      "transactionIndex": "0x5b",
      "blockHash": "0xe6bcedecacacc0ac0e9a112f08ec53d283a15d26c47b0d0ff00db6095715806c",
      "blockNumber": "0x137e1bb",
      "gasUsed": "0x9eb73",
      "effectiveGasPrice": "0x61e15111",
      "from": "0x207e804758e28f2b3fd6e4219671b327100b82f8",
      "to": "0x4e59b44847b379578588920ca78fbf26c0b4956c",
      "contractAddress": "0x3e564eaffeb8b01d6a129df3c97df50974ff7e1e"
    },
    {
      "status": "0x1",
      "cumulativeGasUsed": "0xa6b9c0",
      "logs": [
        {
          "address": "0x819ce86a2256968698c61cd087d09cc108b7ab05",
          "topics": [
            "0x8be0079c531659141344cd1fd0a4f28419497f9722a3daafe3b4186f6b6457e0",
            "0x000000000000000000000000910cbfb9a1e64a35c8b04d0d85fbc4b0993a3c17",
            "0x000000000000000000000000207e804758e28f2b3fd6e4219671b327100b82f8"
          ],
          "data": "0x",
          "blockHash": "0xbfc27f841e0534894f0467387a79c88bd6bf7734eedc133a571e7b9a3e396fe6",
          "blockNumber": "0x137e1bd",
          "transactionHash": "0xf01dc86aecf87b7d3cff62c604175852e399cbcf9f3c29caca2cf16db207307a",
          "transactionIndex": "0x83",
          "logIndex": "0x230",
          "removed": false
        },
        {
          "address": "0x819ce86a2256968698c61cd087d09cc108b7ab05",
          "topics": [
            "0xa3396fd7f6e0a21b50e5089d2da70d5ac0a3bbbd1f617a93f134b76389980198",
            "0x000000000000000000000000910cbfb9a1e64a35c8b04d0d85fbc4b0993a3c17",
            "0x0000000000000000000000000000000000000000000000000000000000000000"
          ],
          "data": "0x",
          "blockHash": "0xbfc27f841e0534894f0467387a79c88bd6bf7734eedc133a571e7b9a3e396fe6",
          "blockNumber": "0x137e1bd",
          "transactionHash": "0xf01dc86aecf87b7d3cff62c604175852e399cbcf9f3c29caca2cf16db207307a",
          "transactionIndex": "0x83",
          "logIndex": "0x231",
          "removed": false
        },
        {
          "address": "0x3e564eaffeb8b01d6a129df3c97df50974ff7e1e",
          "topics": [
            "0xd928a3951eedba2f72a5eb8c15b591ead63c282f21b2f5e93506fb88cae27fec"
          ],
          "data": "0x0000000000000000000000000000000000000000000000000000000000000060000000000000000000000000819ce86a2256968698c61cd087d09cc108b7ab05ec3cb12b13863a774da48c59d381f4744aa32574e53ccac28ee510ff721dfb030000000000000000000000000000000000000000000000000000000000000025536576656e205365617320526f6c6573417574686f726974792056657273696f6e20302e30000000000000000000000000000000000000000000000000000000",
          "blockHash": "0xbfc27f841e0534894f0467387a79c88bd6bf7734eedc133a571e7b9a3e396fe6",
          "blockNumber": "0x137e1bd",
          "transactionHash": "0xf01dc86aecf87b7d3cff62c604175852e399cbcf9f3c29caca2cf16db207307a",
          "transactionIndex": "0x83",
          "logIndex": "0x232",
          "removed": false
        }
      ],
      "logsBloom": "0x00000000000000000000000000000000000000000000000000c00000000200000000000000000000000010000040000000100000000000000000000000000000000000000000000000000000000000000003000000000000000000000000000000000000020000000000000000000800002000000000000000000000000020400000000000000000000000000000000000000000000000080000000000000001000000000000000000000002000000000400000000000000000000000000000000200000000000000000000000000000000000400020000000000000000020000000000002004000000000000000000000000000400000000000000000000000",
      "type": "0x2",
      "transactionHash": "0xf01dc86aecf87b7d3cff62c604175852e399cbcf9f3c29caca2cf16db207307a",
      "transactionIndex": "0x83",
      "blockHash": "0xbfc27f841e0534894f0467387a79c88bd6bf7734eedc133a571e7b9a3e396fe6",
      "blockNumber": "0x137e1bd",
      "gasUsed": "0xadeec",
      "effectiveGasPrice": "0x5bc2c3c3",
      "from": "0x207e804758e28f2b3fd6e4219671b327100b82f8",
      "to": "0x3e564eaffeb8b01d6a129df3c97df50974ff7e1e",
      "contractAddress": null
    },
    {
      "status": "0x1",
      "cumulativeGasUsed": "0x22c4c0",
      "logs": [
        {
          "address": "0x3e564eaffeb8b01d6a129df3c97df50974ff7e1e",
          "topics": [
            "0xa3396fd7f6e0a21b50e5089d2da70d5ac0a3bbbd1f617a93f134b76389980198",
            "0x000000000000000000000000207e804758e28f2b3fd6e4219671b327100b82f8",
            "0x000000000000000000000000819ce86a2256968698c61cd087d09cc108b7ab05"
          ],
          "data": "0x",
          "blockHash": "0xcf261ef14f09bddaa2911d4a99c01d3bf6844ec7246a3cb64253946c08e887a4",
          "blockNumber": "0x137e1bf",
          "transactionHash": "0xa082801475cdb874fd82cfa785997c2b001e783d376f3f9f8fb32fb69a087d31",
          "transactionIndex": "0x23",
          "logIndex": "0x38",
          "removed": false
        }
      ],
      "logsBloom": "0x00000000000080000000000000000000000000000000000000000000000200000000000000000000000010000000000000100000000000000000000000200000000000000000000000000000000000000002000000000000000000000000000000000000000000000000000000000000002000000000000000000000000020000000000000000000000000000000000000000000000000000000000000000001000000000000000000000000000000000000000000000000000000000000000000000000000000000000000000000000000000400000000000000000000000000000000000004000000000000000000000000000000004000000000000000000",
      "type": "0x2",
      "transactionHash": "0xa082801475cdb874fd82cfa785997c2b001e783d376f3f9f8fb32fb69a087d31",
      "transactionIndex": "0x23",
      "blockHash": "0xcf261ef14f09bddaa2911d4a99c01d3bf6844ec7246a3cb64253946c08e887a4",
      "blockNumber": "0x137e1bf",
      "gasUsed": "0xb9e8",
      "effectiveGasPrice": "0x6138706f",
      "from": "0x207e804758e28f2b3fd6e4219671b327100b82f8",
      "to": "0x3e564eaffeb8b01d6a129df3c97df50974ff7e1e",
      "contractAddress": null
    },
    {
      "status": "0x1",
      "cumulativeGasUsed": "0xd18b97",
      "logs": [
        {
          "address": "0x819ce86a2256968698c61cd087d09cc108b7ab05",
          "topics": [
            "0xa52ea92e6e955aa8ac66420b86350f7139959adfcc7e6a14eee1bd116d09860e",
            "0x0000000000000000000000000000000000000000000000000000000000000001",
            "0x0000000000000000000000003e564eaffeb8b01d6a129df3c97df50974ff7e1e",
            "0xef5de7e300000000000000000000000000000000000000000000000000000000"
          ],
          "data": "0x0000000000000000000000000000000000000000000000000000000000000001",
          "blockHash": "0x6c5fe23cdc6f29ab6fd5b3dfddb12fac4a428b334d7029624e82cad22ca400a6",
          "blockNumber": "0x137e1c1",
          "transactionHash": "0x3b93f808a6e7b7363c50cbc0de6b1548af11671c7b15a11b390fd218e09ea064",
          "transactionIndex": "0x94",
          "logIndex": "0x18a",
          "removed": false
        }
      ],
      "logsBloom": "0x00000010000000000000020000000000000000000000000000400004000000000000000000000000000000000000000000000000000000000000000000040000000000000000000000000000000000000000000000040000000000000000000000000000000000010000000000000000000000000000080000000000000000000000000000000000000000000000000000000000010000000000000000000000000000000000000000000002000000000000000000000000000000000000000000000000000000000000000000080000000000000000000200000000000040000000000000000000002000000000000000000000400000000000000000000000",
      "type": "0x2",
      "transactionHash": "0x3b93f808a6e7b7363c50cbc0de6b1548af11671c7b15a11b390fd218e09ea064",
      "transactionIndex": "0x94",
      "blockHash": "0x6c5fe23cdc6f29ab6fd5b3dfddb12fac4a428b334d7029624e82cad22ca400a6",
      "blockNumber": "0x137e1c1",
      "gasUsed": "0xc963",
      "effectiveGasPrice": "0x59a5697c",
      "from": "0x207e804758e28f2b3fd6e4219671b327100b82f8",
      "to": "0x819ce86a2256968698c61cd087d09cc108b7ab05",
      "contractAddress": null
    },
    {
      "status": "0x1",
      "cumulativeGasUsed": "0x142b166",
      "logs": [
        {
          "address": "0x819ce86a2256968698c61cd087d09cc108b7ab05",
          "topics": [
            "0x4c9bdd0c8e073eb5eda2250b18d8e5121ff27b62064fbeeeed4869bb99bc5bf2",
            "0x000000000000000000000000207e804758e28f2b3fd6e4219671b327100b82f8",
            "0x0000000000000000000000000000000000000000000000000000000000000001"
          ],
          "data": "0x0000000000000000000000000000000000000000000000000000000000000001",
          "blockHash": "0xd26b4ee9edff62fe5d625f6dc0b8419b188427fd397d5fb5387b9c6571a0f3e1",
          "blockNumber": "0x137e1c9",
          "transactionHash": "0x09113b1930e4e906cdd3af970b330446ad25fb7c086c1a37ea6050e5cc5fe52f",
          "transactionIndex": "0xb0",
          "logIndex": "0x233",
          "removed": false
        }
      ],
      "logsBloom": "0x00000000000000000000000000000000000000000000000000400000000000000000000000000000000000000000000000000000000000000000000000040000000000000000000000000000000000000000000000040000000000000000000000000000000000000000000000000000002000000000000000000000000000000000000000000000000000000000000000000080000000000000000000000000000000000000000000000002000000000000000000000000000000000000000000000000000000000000000000000000000000400000000000000000000040000000000000004000000000000000000000400080400000000000000000000000",
      "type": "0x2",
      "transactionHash": "0x09113b1930e4e906cdd3af970b330446ad25fb7c086c1a37ea6050e5cc5fe52f",
      "transactionIndex": "0xb0",
      "blockHash": "0xd26b4ee9edff62fe5d625f6dc0b8419b188427fd397d5fb5387b9c6571a0f3e1",
      "blockNumber": "0x137e1c9",
      "gasUsed": "0xc61f",
      "effectiveGasPrice": "0x570efa41",
      "from": "0x207e804758e28f2b3fd6e4219671b327100b82f8",
      "to": "0x819ce86a2256968698c61cd087d09cc108b7ab05",
      "contractAddress": null
    }
  ],
  "libraries": [],
  "pending": [],
  "returns": {},
  "timestamp": 1722585464,
  "chain": 1,
  "commit": "aa1f104"
}