{
  "transactions": [
    {
      "hash": "0xe1acbc8d666a03e22498eac9799251808a004eb569a8029ffa27bdc39cc653d7",
      "transactionType": "CALL",
      "contractName": null,
      "contractAddress": "0xaec02407cbc7deb67ab1bbe4b0d49de764878bce",
      "function": "setAuthority(address)",
      "arguments": [
        "0xBb51d90b3850A7Bc1286F658a774DEb119289E8E"
      ],
      "transaction": {
        "from": "0x207e804758e28f2b3fd6e4219671b327100b82f8",
        "to": "0xaec02407cbc7deb67ab1bbe4b0d49de764878bce",
        "gas": "0x11043",
        "value": "0x0",
        "input": "0x7a9e5e4b000000000000000000000000bb51d90b3850a7bc1286f658a774deb119289e8e",
        "nonce": "0x194",
        "chainId": "0x1"
      },
      "additionalContracts": [],
      "isFixedGasLimit": false
    },
    {
      "hash": "0x6407b4060cfd6d504381555cf13fadcbb88969415b7541f9437ab8797bf1e19f",
      "transactionType": "CALL",
      "contractName": null,
      "contractAddress": "0x6049bd892f14669a4466e46981eced75d610a2ec",
      "function": "setAuthority(address)",
      "arguments": [
        "0xBb51d90b3850A7Bc1286F658a774DEb119289E8E"
      ],
      "transaction": {
        "from": "0x207e804758e28f2b3fd6e4219671b327100b82f8",
        "to": "0x6049bd892f14669a4466e46981eced75d610a2ec",
        "gas": "0x11043",
        "value": "0x0",
        "input": "0x7a9e5e4b000000000000000000000000bb51d90b3850a7bc1286f658a774deb119289e8e",
        "nonce": "0x195",
        "chainId": "0x1"
      },
      "additionalContracts": [],
      "isFixedGasLimit": false
    },
    {
      "hash": "0x96c2de1fa2a721750f7d2df8330ef85552e414fee37841309c10cc332c3e2c79",
      "transactionType": "CALL",
      "contractName": null,
      "contractAddress": "0xb6f7d38e3eabb8f69210afc2212fe82e0f1912b0",
      "function": "setAuthority(address)",
      "arguments": [
        "0xBb51d90b3850A7Bc1286F658a774DEb119289E8E"
      ],
      "transaction": {
        "from": "0x207e804758e28f2b3fd6e4219671b327100b82f8",
        "to": "0xb6f7d38e3eabb8f69210afc2212fe82e0f1912b0",
        "gas": "0x100c7",
        "value": "0x0",
        "input": "0x7a9e5e4b000000000000000000000000bb51d90b3850a7bc1286f658a774deb119289e8e",
        "nonce": "0x196",
        "chainId": "0x1"
      },
      "additionalContracts": [],
      "isFixedGasLimit": false
    },
    {
      "hash": "0x9f5962d6a07a9460278f8f9ee05e189dc2b41dddcf348da953b47f65357514e9",
      "transactionType": "CALL",
      "contractName": null,
      "contractAddress": "0x12be34be067ebd201f6eaf78a861d90b2a66b113",
      "function": "setAuthority(address)",
      "arguments": [
        "0xBb51d90b3850A7Bc1286F658a774DEb119289E8E"
      ],
      "transaction": {
        "from": "0x207e804758e28f2b3fd6e4219671b327100b82f8",
        "to": "0x12be34be067ebd201f6eaf78a861d90b2a66b113",
        "gas": "0x10104",
        "value": "0x0",
        "input": "0x7a9e5e4b000000000000000000000000bb51d90b3850a7bc1286f658a774deb119289e8e",
        "nonce": "0x197",
        "chainId": "0x1"
      },
      "additionalContracts": [],
      "isFixedGasLimit": false
    },
    {
      "hash": "0xd339a11d7d9f093f71efe2a509ce1d771559e755fb0deefebad94be344cb77fc",
      "transactionType": "CALL",
      "contractName": null,
      "contractAddress": "0xbb51d90b3850a7bc1286f658a774deb119289e8e",
      "function": "setUserRole(address,uint8,bool)",
      "arguments": [
        "0xAEC02407cBC7Deb67ab1bbe4B0d49De764878bCE",
        "1",
        "true"
      ],
      "transaction": {
        "from": "0x207e804758e28f2b3fd6e4219671b327100b82f8",
        "to": "0xbb51d90b3850a7bc1286f658a774deb119289e8e",
        "gas": "0x111a6",
        "value": "0x0",
        "input": "0x67aff484000000000000000000000000aec02407cbc7deb67ab1bbe4b0d49de764878bce00000000000000000000000000000000000000000000000000000000000000010000000000000000000000000000000000000000000000000000000000000001",
        "nonce": "0x198",
        "chainId": "0x1"
      },
      "additionalContracts": [],
      "isFixedGasLimit": false
    },
    {
      "hash": "0x71a9f3cb47ec3e9692c279d78cd341bbf35ca33276631465ae50e9364a4f2a5f",
      "transactionType": "CALL",
      "contractName": null,
      "contractAddress": "0xbb51d90b3850a7bc1286f658a774deb119289e8e",
      "function": "setUserRole(address,uint8,bool)",
      "arguments": [
        "0xAEC02407cBC7Deb67ab1bbe4B0d49De764878bCE",
        "4",
        "true"
      ],
      "transaction": {
        "from": "0x207e804758e28f2b3fd6e4219671b327100b82f8",
        "to": "0xbb51d90b3850a7bc1286f658a774deb119289e8e",
        "gas": "0xc00f",
        "value": "0x0",
        "input": "0x67aff484000000000000000000000000aec02407cbc7deb67ab1bbe4b0d49de764878bce00000000000000000000000000000000000000000000000000000000000000040000000000000000000000000000000000000000000000000000000000000001",
        "nonce": "0x199",
        "chainId": "0x1"
      },
      "additionalContracts": [],
      "isFixedGasLimit": false
    },
    {
      "hash": "0xb9ef27b99f39cdc63666d194cf76f22b693adf0c5ebaf5ab7107bf1455065a7f",
      "transactionType": "CALL",
      "contractName": null,
      "contractAddress": "0xbb51d90b3850a7bc1286f658a774deb119289e8e",
      "function": "setUserRole(address,uint8,bool)",
      "arguments": [
        "0xB6f7D38e3EAbB8f69210AFc2212fe82e0f1912b0",
        "2",
        "true"
      ],
      "transaction": {
        "from": "0x207e804758e28f2b3fd6e4219671b327100b82f8",
        "to": "0xbb51d90b3850a7bc1286f658a774deb119289e8e",
        "gas": "0x111a6",
        "value": "0x0",
        "input": "0x67aff484000000000000000000000000b6f7d38e3eabb8f69210afc2212fe82e0f1912b000000000000000000000000000000000000000000000000000000000000000020000000000000000000000000000000000000000000000000000000000000001",
        "nonce": "0x19a",
        "chainId": "0x1"
      },
      "additionalContracts": [],
      "isFixedGasLimit": false
    },
    {
      "hash": "0x66e7d7340f99051eccc8491d955bbe785030d3614714170b805ed33372d0ab59",
      "transactionType": "CALL",
      "contractName": null,
      "contractAddress": "0xbb51d90b3850a7bc1286f658a774deb119289e8e",
      "function": "setUserRole(address,uint8,bool)",
      "arguments": [
        "0x12Be34bE067Ebd201f6eAf78a861D90b2a66B113",
        "3",
        "true"
      ],
      "transaction": {
        "from": "0x207e804758e28f2b3fd6e4219671b327100b82f8",
        "to": "0xbb51d90b3850a7bc1286f658a774deb119289e8e",
        "gas": "0x111a6",
        "value": "0x0",
        "input": "0x67aff48400000000000000000000000012be34be067ebd201f6eaf78a861d90b2a66b11300000000000000000000000000000000000000000000000000000000000000030000000000000000000000000000000000000000000000000000000000000001",
        "nonce": "0x19b",
        "chainId": "0x1"
      },
      "additionalContracts": [],
      "isFixedGasLimit": false
    },
    {
      "hash": "0xfb86c29e35f849f1cc8411616433d6d654b9b40d6b977b3a359a4f22789fe1e9",
      "transactionType": "CALL",
      "contractName": null,
      "contractAddress": "0xbb51d90b3850a7bc1286f658a774deb119289e8e",
      "function": "setUserRole(address,uint8,bool)",
      "arguments": [
        "0x589A7295B832E7e0f6cA0BA6499A943B6640a95e",
        "14",
        "true"
      ],
      "transaction": {
        "from": "0x207e804758e28f2b3fd6e4219671b327100b82f8",
        "to": "0xbb51d90b3850a7bc1286f658a774deb119289e8e",
        "gas": "0x111a6",
        "value": "0x0",
        "input": "0x67aff484000000000000000000000000589a7295b832e7e0f6ca0ba6499a943b6640a95e000000000000000000000000000000000000000000000000000000000000000e0000000000000000000000000000000000000000000000000000000000000001",
        "nonce": "0x19c",
        "chainId": "0x1"
      },
      "additionalContracts": [],
      "isFixedGasLimit": false
    }
  ],
  "receipts": [
    {
      "status": "0x1",
      "cumulativeGasUsed": "0xca6c22",
      "logs": [
        {
          "address": "0xaec02407cbc7deb67ab1bbe4b0d49de764878bce",
          "topics": [
            "0xa3396fd7f6e0a21b50e5089d2da70d5ac0a3bbbd1f617a93f134b76389980198",
            "0x000000000000000000000000207e804758e28f2b3fd6e4219671b327100b82f8",
            "0x000000000000000000000000bb51d90b3850a7bc1286f658a774deb119289e8e"
          ],
          "data": "0x",
          "blockHash": "0xa4aa6c067d70e7e5d3418120ddf1d6c54441440e5bd77896e19053bb61dcf8f9",
          "blockNumber": "0x137e3d4",
          "transactionHash": "0xe1acbc8d666a03e22498eac9799251808a004eb569a8029ffa27bdc39cc653d7",
          "transactionIndex": "0x8d",
          "logIndex": "0x167",
          "removed": false
        }
      ],
      "logsBloom": "0x00000000000000000000000000000000000000000100000000000000000000000000000004000000000010000000001000100000000000000000000000000000008000000000000000000000000000000000000000000000000020000000000000000000000000000000000000000000002000000000000000000000000000000000000000000000000000000000000000000000000000000000000000000001000000000000000000000000000000000000000000000000000000000000000000000000000000000000000000000000000000400000000000000000000000000000000002004000000000000000000000000000000000000000000000000000",
      "type": "0x2",
      "transactionHash": "0xe1acbc8d666a03e22498eac9799251808a004eb569a8029ffa27bdc39cc653d7",
      "transactionIndex": "0x8d",
      "blockHash": "0xa4aa6c067d70e7e5d3418120ddf1d6c54441440e5bd77896e19053bb61dcf8f9",
      "blockNumber": "0x137e3d4",
      "gasUsed": "0xba2a",
      "effectiveGasPrice": "0xa2b4fd48",
      "from": "0x207e804758e28f2b3fd6e4219671b327100b82f8",
      "to": "0xaec02407cbc7deb67ab1bbe4b0d49de764878bce",
      "contractAddress": null
    },
    {
      "status": "0x1",
      "cumulativeGasUsed": "0xc962d5",
      "logs": [
        {
          "address": "0x6049bd892f14669a4466e46981eced75d610a2ec",
          "topics": [
            "0xa3396fd7f6e0a21b50e5089d2da70d5ac0a3bbbd1f617a93f134b76389980198",
            "0x000000000000000000000000207e804758e28f2b3fd6e4219671b327100b82f8",
            "0x000000000000000000000000bb51d90b3850a7bc1286f658a774deb119289e8e"
          ],
          "data": "0x",
          "blockHash": "0x6e73716d3f34a02447f85f340b7904ea1ebeaf56507a240d8741aae46a136ef6",
          "blockNumber": "0x137e3d6",
          "transactionHash": "0x6407b4060cfd6d504381555cf13fadcbb88969415b7541f9437ab8797bf1e19f",
          "transactionIndex": "0x7f",
          "logIndex": "0x15c",
          "removed": false
        }
      ],
      "logsBloom": "0x00000000000000000000000000000000000000000000000000000000000000000000000004000000000010200004000000100000000000000000000000000000008000000000000000000000000000000000000000000002000000000000000000000000000000000000000000000000002000000000000000000000000000000000000000000000000000000000000000000000000000000000000000000001000000000000000000000000000000000000000000000000000000000000000000000000000000000000000000000000000000400000000000000000000000000000000002004000000000000000000000000000000000000000000000000000",
      "type": "0x2",
      "transactionHash": "0x6407b4060cfd6d504381555cf13fadcbb88969415b7541f9437ab8797bf1e19f",
      "transactionIndex": "0x7f",
      "blockHash": "0x6e73716d3f34a02447f85f340b7904ea1ebeaf56507a240d8741aae46a136ef6",
      "blockNumber": "0x137e3d6",
      "gasUsed": "0xba2a",
      "effectiveGasPrice": "0xa0e8980f",
      "from": "0x207e804758e28f2b3fd6e4219671b327100b82f8",
      "to": "0x6049bd892f14669a4466e46981eced75d610a2ec",
      "contractAddress": null
    },
    {
      "status": "0x1",
      "cumulativeGasUsed": "0x7bbaad",
      "logs": [
        {
          "address": "0xb6f7d38e3eabb8f69210afc2212fe82e0f1912b0",
          "topics": [
            "0xa3396fd7f6e0a21b50e5089d2da70d5ac0a3bbbd1f617a93f134b76389980198",
            "0x000000000000000000000000207e804758e28f2b3fd6e4219671b327100b82f8",
            "0x000000000000000000000000bb51d90b3850a7bc1286f658a774deb119289e8e"
          ],
          "data": "0x",
          "blockHash": "0x8e44820bfa3bf4d3c191fd2740c7ea196e76a5b6212b30f9380025dceb22f575",
          "blockNumber": "0x137e3d8",
          "transactionHash": "0x96c2de1fa2a721750f7d2df8330ef85552e414fee37841309c10cc332c3e2c79",
          "transactionIndex": "0x53",
          "logIndex": "0xe4",
          "removed": false
        }
      ],
      "logsBloom": "0x00000000000000000000000000004000000000000000000000000000000000000000000004000000000010000000000000100000000000000000000000000000008002000000000000004000000000000000000000000000000000000000000000000000000000000000000000000000002000000000000000000000000000000000000000000000000000000000000000000000000000000000000000000001000000000000000000000000000000000000000000000000000000000000000000000000000000000000000000000000000000400000000000000000000000000000000002004000000000000000000000000000000000000000000000000000",
      "type": "0x2",
      "transactionHash": "0x96c2de1fa2a721750f7d2df8330ef85552e414fee37841309c10cc332c3e2c79",
      "transactionIndex": "0x53",
      "blockHash": "0x8e44820bfa3bf4d3c191fd2740c7ea196e76a5b6212b30f9380025dceb22f575",
      "blockNumber": "0x137e3d8",
      "gasUsed": "0xb9e8",
      "effectiveGasPrice": "0xa23b8c2b",
      "from": "0x207e804758e28f2b3fd6e4219671b327100b82f8",
      "to": "0xb6f7d38e3eabb8f69210afc2212fe82e0f1912b0",
      "contractAddress": null
    },
    {
      "status": "0x1",
      "cumulativeGasUsed": "0xfc7a96",
      "logs": [
        {
          "address": "0x12be34be067ebd201f6eaf78a861d90b2a66b113",
          "topics": [
            "0xa3396fd7f6e0a21b50e5089d2da70d5ac0a3bbbd1f617a93f134b76389980198",
            "0x000000000000000000000000207e804758e28f2b3fd6e4219671b327100b82f8",
            "0x000000000000000000000000bb51d90b3850a7bc1286f658a774deb119289e8e"
          ],
          "data": "0x",
          "blockHash": "0x09550ee0b31dec94cb58084240b6e741e5200da7d8cf7b99d96bcf8f609c9d8e",
          "blockNumber": "0x137e3d9",
          "transactionHash": "0x9f5962d6a07a9460278f8f9ee05e189dc2b41dddcf348da953b47f65357514e9",
          "transactionIndex": "0x99",
          "logIndex": "0x1e5",
          "removed": false
        }
      ],
      "logsBloom": "0x00000000000000000000000000000000000000000000000000000000000000000000000004200000000010000000800000100000000000000000000000000000008000000000000000000000000000000000000000000000000000000000000000000000000000000000000000000000002000000000000000000000000000000000008000000000000000000000000000000000000000000000000000000001000000000000000000000000000000000000000000000000000000000000000000000000000000000000000000000000000000400000000000000000000000000000000002004000000000000000000000000000000000000000000000000000",
      "type": "0x2",
      "transactionHash": "0x9f5962d6a07a9460278f8f9ee05e189dc2b41dddcf348da953b47f65357514e9",
      "transactionIndex": "0x99",
      "blockHash": "0x09550ee0b31dec94cb58084240b6e741e5200da7d8cf7b99d96bcf8f609c9d8e",
      "blockNumber": "0x137e3d9",
      "gasUsed": "0xba14",
      "effectiveGasPrice": "0x9fff0621",
      "from": "0x207e804758e28f2b3fd6e4219671b327100b82f8",
      "to": "0x12be34be067ebd201f6eaf78a861d90b2a66b113",
      "contractAddress": null
    },
    {
      "status": "0x1",
      "cumulativeGasUsed": "0xcdebc4",
      "logs": [
        {
          "address": "0xbb51d90b3850a7bc1286f658a774deb119289e8e",
          "topics": [
            "0x4c9bdd0c8e073eb5eda2250b18d8e5121ff27b62064fbeeeed4869bb99bc5bf2",
            "0x000000000000000000000000aec02407cbc7deb67ab1bbe4b0d49de764878bce",
            "0x0000000000000000000000000000000000000000000000000000000000000001"
          ],
          "data": "0x0000000000000000000000000000000000000000000000000000000000000001",
          "blockHash": "0x5945ec3fe225c156d30c56b3a559b88311d9ecf29bc6709565699e3d654b3bb4",
          "blockNumber": "0x137e3da",
          "transactionHash": "0xd339a11d7d9f093f71efe2a509ce1d771559e755fb0deefebad94be344cb77fc",
          "transactionIndex": "0x7d",
          "logIndex": "0x16c",
          "removed": false
        }
      ],
      "logsBloom": "0x00000000000000000000000000000000000000000000000000000000000000000000000000000000000001000000000000000000000000000000000000040000000000000000000000000000000000000400000000040000000000000000000000000000000000000000000000000000000100000000000000000000000000000000000000000000000000000000000000000080000000000000000000000000000000000000000000000000000000000000000000000000000000000000000000010000000000001000000000000000000000000000000000000000000040000000000000000000000000000000000000c00080000000000000000000000000",
      "type": "0x2",
      "transactionHash": "0xd339a11d7d9f093f71efe2a509ce1d771559e755fb0deefebad94be344cb77fc",
      "transactionIndex": "0x7d",
      "blockHash": "0x5945ec3fe225c156d30c56b3a559b88311d9ecf29bc6709565699e3d654b3bb4",
      "blockNumber": "0x137e3da",
      "gasUsed": "0xc61f",
      "effectiveGasPrice": "0xa479d58a",
      "from": "0x207e804758e28f2b3fd6e4219671b327100b82f8",
      "to": "0xbb51d90b3850a7bc1286f658a774deb119289e8e",
      "contractAddress": null
    },
    {
      "status": "0x1",
      "cumulativeGasUsed": "0x186418",
      "logs": [
        {
          "address": "0xbb51d90b3850a7bc1286f658a774deb119289e8e",
          "topics": [
            "0x4c9bdd0c8e073eb5eda2250b18d8e5121ff27b62064fbeeeed4869bb99bc5bf2",
            "0x000000000000000000000000aec02407cbc7deb67ab1bbe4b0d49de764878bce",
            "0x0000000000000000000000000000000000000000000000000000000000000004"
          ],
          "data": "0x0000000000000000000000000000000000000000000000000000000000000001",
          "blockHash": "0xf6818ef111634d2b847a41df0d35199016aa5c5d31d57c41a17c078ad8365b80",
          "blockNumber": "0x137e3dd",
          "transactionHash": "0x71a9f3cb47ec3e9692c279d78cd341bbf35ca33276631465ae50e9364a4f2a5f",
          "transactionIndex": "0x14",
          "logIndex": "0x35",
          "removed": false
        }
      ],
      "logsBloom": "0x00000000000000000000000000000000000000000000000000000000000000000000000000000000000001000000000000000000000000000000000000000000000000000000000000000000000000000400000000000000000000000000000008000000000000000000000000000000000100000000000000000000000000000000000000000000000000000000000000000080000000000000000000000000000000000000000000000000000000000000000000000000002000000000000000010000000000001000000000000000000000008000000000000000000000000000000000000000000000000000000000c00080000000000000000000000000",
      "type": "0x2",
      "transactionHash": "0x71a9f3cb47ec3e9692c279d78cd341bbf35ca33276631465ae50e9364a4f2a5f",
      "transactionIndex": "0x14",
      "blockHash": "0xf6818ef111634d2b847a41df0d35199016aa5c5d31d57c41a17c078ad8365b80",
      "blockNumber": "0x137e3dd",
      "gasUsed": "0x8353",
      "effectiveGasPrice": "0xa5f9a3b4",
      "from": "0x207e804758e28f2b3fd6e4219671b327100b82f8",
      "to": "0xbb51d90b3850a7bc1286f658a774deb119289e8e",
      "contractAddress": null
    },
    {
      "status": "0x1",
      "cumulativeGasUsed": "0x89caae",
      "logs": [
        {
          "address": "0xbb51d90b3850a7bc1286f658a774deb119289e8e",
          "topics": [
            "0x4c9bdd0c8e073eb5eda2250b18d8e5121ff27b62064fbeeeed4869bb99bc5bf2",
            "0x000000000000000000000000b6f7d38e3eabb8f69210afc2212fe82e0f1912b0",
            "0x0000000000000000000000000000000000000000000000000000000000000002"
          ],
          "data": "0x0000000000000000000000000000000000000000000000000000000000000001",
          "blockHash": "0x075d83b2b5094a91b4b4edd6e75bc4334051eb1a1760022518747d4a5918455d",
          "blockNumber": "0x137e3de",
          "transactionHash": "0xb9ef27b99f39cdc63666d194cf76f22b693adf0c5ebaf5ab7107bf1455065a7f",
          "transactionIndex": "0x71",
          "logIndex": "0x106",
          "removed": false
        }
      ],
      "logsBloom": "0x04000000000000000000000000000000000000000000000000000000000000000000000000000000000001000000000800000000000000000000000000000000000000000000000000000000000004000000000000000000000020000000000000000000000000000000000000000000000000000000000000000000000000000000000000000000000000000000000000000080000000000000000000000000000000000000000000000100000000000000000000000000000000000000000000010000000000000000000000000000000000000000000000000000000000000000000000000000000000000000000000c00080008000000000000000000000",
      "type": "0x2",
      "transactionHash": "0xb9ef27b99f39cdc63666d194cf76f22b693adf0c5ebaf5ab7107bf1455065a7f",
      "transactionIndex": "0x71",
      "blockHash": "0x075d83b2b5094a91b4b4edd6e75bc4334051eb1a1760022518747d4a5918455d",
      "blockNumber": "0x137e3de",
      "gasUsed": "0xc61f",
      "effectiveGasPrice": "0xa94d52ae",
      "from": "0x207e804758e28f2b3fd6e4219671b327100b82f8",
      "to": "0xbb51d90b3850a7bc1286f658a774deb119289e8e",
      "contractAddress": null
    },
    {
      "status": "0x1",
      "cumulativeGasUsed": "0x10fafe5",
      "logs": [
        {
          "address": "0xbb51d90b3850a7bc1286f658a774deb119289e8e",
          "topics": [
            "0x4c9bdd0c8e073eb5eda2250b18d8e5121ff27b62064fbeeeed4869bb99bc5bf2",
            "0x00000000000000000000000012be34be067ebd201f6eaf78a861d90b2a66b113",
            "0x0000000000000000000000000000000000000000000000000000000000000003"
          ],
          "data": "0x0000000000000000000000000000000000000000000000000000000000000001",
          "blockHash": "0x7c9a3c7eb74830d06a8070360b64a91f9c3365d6f68f468bf7cc868410137c5b",
          "blockNumber": "0x137e3df",
          "transactionHash": "0x66e7d7340f99051eccc8491d955bbe785030d3614714170b805ed33372d0ab59",
          "transactionIndex": "0xac",
          "logIndex": "0x212",
          "removed": false
        }
      ],
      "logsBloom": "0x00000000000000000000000000000000000000000000000000000000000000000000000000000000000001000000000000000000020000000000000000000000000000000000000000000000000000000000000000000000000000000000000000000000040000000000000000000000000000008000000000000000000000000000000000000000000000000000000000000080000000008000000000000000000000000000000000000000000000000000000000800000000000000000400000010000000000000000000000000000000000000000000000000000000000000000000000000000000000000000000000c00080000000000000000000000000",
      "type": "0x2",
      "transactionHash": "0x66e7d7340f99051eccc8491d955bbe785030d3614714170b805ed33372d0ab59",
      "transactionIndex": "0xac",
      "blockHash": "0x7c9a3c7eb74830d06a8070360b64a91f9c3365d6f68f468bf7cc868410137c5b",
      "blockNumber": "0x137e3df",
      "gasUsed": "0xc61f",
      "effectiveGasPrice": "0xa3bbd4a9",
      "from": "0x207e804758e28f2b3fd6e4219671b327100b82f8",
      "to": "0xbb51d90b3850a7bc1286f658a774deb119289e8e",
      "contractAddress": null
    },
    {
      "status": "0x1",
      "cumulativeGasUsed": "0x838972",
      "logs": [
        {
          "address": "0xbb51d90b3850a7bc1286f658a774deb119289e8e",
          "topics": [
            "0x4c9bdd0c8e073eb5eda2250b18d8e5121ff27b62064fbeeeed4869bb99bc5bf2",
            "0x000000000000000000000000589a7295b832e7e0f6ca0ba6499a943b6640a95e",
            "0x000000000000000000000000000000000000000000000000000000000000000e"
          ],
          "data": "0x0000000000000000000000000000000000000000000000000000000000000001",
          "blockHash": "0xde0a5211ffd55ddca541e62348935061cc8571c80db75c92360d689948b82411",
          "blockNumber": "0x137e3e0",
          "transactionHash": "0xfb86c29e35f849f1cc8411616433d6d654b9b40d6b977b3a359a4f22789fe1e9",
          "transactionIndex": "0x66",
          "logIndex": "0xc5",
          "removed": false
        }
      ],
      "logsBloom": "0x00000000000000000400000000000000000000000000000000000000000000000000000000000000000001000000000000000000000000000000000000000000000000000000000800000000000000000000000000000000000000000000000000000000000000000000000000000000000000000008000000000000000000000000000000000000000000000000000008000080000000000000000000000000000000000000000000000000000000000000000000000020000000000000000000090000000000000000000000000000000000000000000000000000000000000000000000000000000000000000000000c00080000000000000000000000000",
      "type": "0x2",
      "transactionHash": "0xfb86c29e35f849f1cc8411616433d6d654b9b40d6b977b3a359a4f22789fe1e9",
      "transactionIndex": "0x66",
      "blockHash": "0xde0a5211ffd55ddca541e62348935061cc8571c80db75c92360d689948b82411",
      "blockNumber": "0x137e3e0",
      "gasUsed": "0xc61f",
      "effectiveGasPrice": "0xac3b0052",
      "from": "0x207e804758e28f2b3fd6e4219671b327100b82f8",
      "to": "0xbb51d90b3850a7bc1286f658a774deb119289e8e",
      "contractAddress": null
    }
  ],
  "libraries": [],
  "pending": [],
  "returns": {},
  "timestamp": 1722591699,
  "chain": 1,
  "commit": "aa1f104"
}